{
  "contractName": "CourseMarketplace",
  "abi": [
    {
      "inputs": [],
      "stateMutability": "nonpayable",
      "type": "constructor"
    },
    {
      "inputs": [],
      "name": "CourseHasOwner",
      "type": "error"
    },
    {
      "inputs": [],
      "name": "CourseIsNotCreated",
      "type": "error"
    },
    {
      "inputs": [],
      "name": "InvalidState",
      "type": "error"
    },
    {
      "inputs": [],
      "name": "OnlyOwner",
      "type": "error"
    },
    {
      "inputs": [
        {
          "internalType": "bytes16",
          "name": "courseId",
          "type": "bytes16"
        },
        {
          "internalType": "bytes32",
          "name": "proof",
          "type": "bytes32"
        }
      ],
      "name": "purchaseCourse",
      "outputs": [],
      "stateMutability": "payable",
      "type": "function",
      "payable": true
    },
    {
      "inputs": [
        {
          "internalType": "bytes32",
          "name": "courseHash",
          "type": "bytes32"
        }
      ],
      "name": "activateCourse",
      "outputs": [],
      "stateMutability": "nonpayable",
      "type": "function"
    },
    {
      "inputs": [
        {
          "internalType": "bytes32",
          "name": "courseHash",
          "type": "bytes32"
        }
      ],
      "name": "deactivateCourse",
      "outputs": [],
      "stateMutability": "nonpayable",
      "type": "function"
    },
    {
      "inputs": [
        {
          "internalType": "address",
          "name": "newOwner",
          "type": "address"
        }
      ],
      "name": "transferOwnership",
      "outputs": [],
      "stateMutability": "nonpayable",
      "type": "function"
    },
    {
      "inputs": [],
      "name": "getCourseCount",
      "outputs": [
        {
          "internalType": "uint256",
          "name": "",
          "type": "uint256"
        }
      ],
      "stateMutability": "view",
      "type": "function",
      "constant": true
    },
    {
      "inputs": [
        {
          "internalType": "uint256",
          "name": "index",
          "type": "uint256"
        }
      ],
      "name": "getCourseHashAtIndex",
      "outputs": [
        {
          "internalType": "bytes32",
          "name": "",
          "type": "bytes32"
        }
      ],
      "stateMutability": "view",
      "type": "function",
      "constant": true
    },
    {
      "inputs": [
        {
          "internalType": "bytes32",
          "name": "courseHash",
          "type": "bytes32"
        }
      ],
      "name": "getCourseByHash",
      "outputs": [
        {
          "components": [
            {
              "internalType": "uint256",
              "name": "id",
              "type": "uint256"
            },
            {
              "internalType": "uint256",
              "name": "price",
              "type": "uint256"
            },
            {
              "internalType": "bytes32",
              "name": "proof",
              "type": "bytes32"
            },
            {
              "internalType": "address",
              "name": "owner",
              "type": "address"
            },
            {
              "internalType": "enum CourseMarketplace.State",
              "name": "state",
              "type": "uint8"
            }
          ],
          "internalType": "struct CourseMarketplace.Course",
          "name": "",
          "type": "tuple"
        }
      ],
      "stateMutability": "view",
      "type": "function",
      "constant": true
    },
    {
      "inputs": [],
      "name": "getContractOwner",
      "outputs": [
        {
          "internalType": "address",
          "name": "",
          "type": "address"
        }
      ],
      "stateMutability": "view",
      "type": "function",
      "constant": true
    }
  ],
  "bytecode": "0x608060405234801561001057600080fd5b506100203361002560201b60201c565b610069565b80600360006101000a81548173ffffffffffffffffffffffffffffffffffffffff021916908373ffffffffffffffffffffffffffffffffffffffff16021790555050565b610fdd806100786000396000f3fe60806040526004361061007b5760003560e01c8063935d7e6d1161004e578063935d7e6d1461014e57806396cfda0614610177578063d76821cb146101a2578063f2fde38b146101be5761007b565b80633926257214610080578063442890d5146100a957806362e4e6ac146100d45780636d11290b14610111575b600080fd5b34801561008c57600080fd5b506100a760048036038101906100a29190610a80565b6101e7565b005b3480156100b557600080fd5b506100be610348565b6040516100cb9190610aee565b60405180910390f35b3480156100e057600080fd5b506100fb60048036038101906100f69190610a80565b610372565b6040516101089190610c1f565b60405180910390f35b34801561011d57600080fd5b5061013860048036038101906101339190610c66565b61044d565b6040516101459190610ca2565b60405180910390f35b34801561015a57600080fd5b5061017560048036038101906101709190610a80565b61046a565b005b34801561018357600080fd5b5061018c6106aa565b6040516101999190610ccc565b60405180910390f35b6101bc60048036038101906101b79190610d3f565b6106b4565b005b3480156101ca57600080fd5b506101e560048036038101906101e09190610dab565b610854565b005b6101ef610348565b73ffffffffffffffffffffffffffffffffffffffff163373ffffffffffffffffffffffffffffffffffffffff1614610253576040517f5fc483c500000000000000000000000000000000000000000000000000000000815260040160405180910390fd5b61025c816108cc565b610292576040517f4db0c48300000000000000000000000000000000000000000000000000000000815260040160405180910390fd5b60008060008381526020019081526020016000209050600060028111156102bc576102bb610b40565b5b8160030160149054906101000a900460ff1660028111156102e0576102df610b40565b5b14610317576040517fbaf3f0f700000000000000000000000000000000000000000000000000000000815260040160405180910390fd5b60018160030160146101000a81548160ff0219169083600281111561033f5761033e610b40565b5b02179055505050565b6000600360009054906101000a900473ffffffffffffffffffffffffffffffffffffffff16905090565b61037a6109eb565b6000808381526020019081526020016000206040518060a00160405290816000820154815260200160018201548152602001600282015481526020016003820160009054906101000a900473ffffffffffffffffffffffffffffffffffffffff1673ffffffffffffffffffffffffffffffffffffffff1673ffffffffffffffffffffffffffffffffffffffff1681526020016003820160149054906101000a900460ff1660028111156104305761042f610b40565b5b600281111561044257610441610b40565b5b815250509050919050565b600060016000838152602001908152602001600020549050919050565b610472610348565b73ffffffffffffffffffffffffffffffffffffffff163373ffffffffffffffffffffffffffffffffffffffff16146104d6576040517f5fc483c500000000000000000000000000000000000000000000000000000000815260040160405180910390fd5b6104df816108cc565b610515576040517f4db0c48300000000000000000000000000000000000000000000000000000000815260040160405180910390fd5b600080600083815260200190815260200160002090506000600281111561053f5761053e610b40565b5b8160030160149054906101000a900460ff16600281111561056357610562610b40565b5b1461059a576040517fbaf3f0f700000000000000000000000000000000000000000000000000000000815260040160405180910390fd5b60008160030160009054906101000a900473ffffffffffffffffffffffffffffffffffffffff1673ffffffffffffffffffffffffffffffffffffffff1682600101546040516105e890610e09565b60006040518083038185875af1925050503d8060008114610625576040519150601f19603f3d011682016040523d82523d6000602084013e61062a565b606091505b505090508061066e576040517f08c379a000000000000000000000000000000000000000000000000000000000815260040161066590610e7b565b60405180910390fd5b60028260030160146101000a81548160ff0219169083600281111561069657610695610b40565b5b021790555060008260010181905550505050565b6000600254905090565b600082336040516020016106c9929190610f04565b6040516020818303038152906040528051906020012090506106ea8161093a565b15610721576040517fb0fc2d9700000000000000000000000000000000000000000000000000000000815260040160405180910390fd5b60006002600081548092919061073690610f5f565b9190505590508160016000838152602001908152602001600020819055506040518060a001604052808281526020013481526020018481526020013373ffffffffffffffffffffffffffffffffffffffff168152602001600060028111156107a1576107a0610b40565b5b81525060008084815260200190815260200160002060008201518160000155602082015181600101556040820151816002015560608201518160030160006101000a81548173ffffffffffffffffffffffffffffffffffffffff021916908373ffffffffffffffffffffffffffffffffffffffff16021790555060808201518160030160146101000a81548160ff0219169083600281111561084657610845610b40565b5b021790555090505050505050565b61085c610348565b73ffffffffffffffffffffffffffffffffffffffff163373ffffffffffffffffffffffffffffffffffffffff16146108c0576040517f5fc483c500000000000000000000000000000000000000000000000000000000815260040160405180910390fd5b6108c9816109a7565b50565b60008073ffffffffffffffffffffffffffffffffffffffff1660008084815260200190815260200160002060030160009054906101000a900473ffffffffffffffffffffffffffffffffffffffff1673ffffffffffffffffffffffffffffffffffffffff1614159050919050565b60003373ffffffffffffffffffffffffffffffffffffffff1660008084815260200190815260200160002060030160009054906101000a900473ffffffffffffffffffffffffffffffffffffffff1673ffffffffffffffffffffffffffffffffffffffff16149050919050565b80600360006101000a81548173ffffffffffffffffffffffffffffffffffffffff021916908373ffffffffffffffffffffffffffffffffffffffff16021790555050565b6040518060a00160405280600081526020016000815260200160008019168152602001600073ffffffffffffffffffffffffffffffffffffffff16815260200160006002811115610a3f57610a3e610b40565b5b81525090565b600080fd5b6000819050919050565b610a5d81610a4a565b8114610a6857600080fd5b50565b600081359050610a7a81610a54565b92915050565b600060208284031215610a9657610a95610a45565b5b6000610aa484828501610a6b565b91505092915050565b600073ffffffffffffffffffffffffffffffffffffffff82169050919050565b6000610ad882610aad565b9050919050565b610ae881610acd565b82525050565b6000602082019050610b036000830184610adf565b92915050565b6000819050919050565b610b1c81610b09565b82525050565b610b2b81610a4a565b82525050565b610b3a81610acd565b82525050565b7f4e487b7100000000000000000000000000000000000000000000000000000000600052602160045260246000fd5b60038110610b8057610b7f610b40565b5b50565b6000819050610b9182610b6f565b919050565b6000610ba182610b83565b9050919050565b610bb181610b96565b82525050565b60a082016000820151610bcd6000850182610b13565b506020820151610be06020850182610b13565b506040820151610bf36040850182610b22565b506060820151610c066060850182610b31565b506080820151610c196080850182610ba8565b50505050565b600060a082019050610c346000830184610bb7565b92915050565b610c4381610b09565b8114610c4e57600080fd5b50565b600081359050610c6081610c3a565b92915050565b600060208284031215610c7c57610c7b610a45565b5b6000610c8a84828501610c51565b91505092915050565b610c9c81610a4a565b82525050565b6000602082019050610cb76000830184610c93565b92915050565b610cc681610b09565b82525050565b6000602082019050610ce16000830184610cbd565b92915050565b60007fffffffffffffffffffffffffffffffff0000000000000000000000000000000082169050919050565b610d1c81610ce7565b8114610d2757600080fd5b50565b600081359050610d3981610d13565b92915050565b60008060408385031215610d5657610d55610a45565b5b6000610d6485828601610d2a565b9250506020610d7585828601610a6b565b9150509250929050565b610d8881610acd565b8114610d9357600080fd5b50565b600081359050610da581610d7f565b92915050565b600060208284031215610dc157610dc0610a45565b5b6000610dcf84828501610d96565b91505092915050565b600081905092915050565b50565b6000610df3600083610dd8565b9150610dfe82610de3565b600082019050919050565b6000610e1482610de6565b9150819050919050565b600082825260208201905092915050565b7f5472616e73666572206661696c65642100000000000000000000000000000000600082015250565b6000610e65601083610e1e565b9150610e7082610e2f565b602082019050919050565b60006020820190508181036000830152610e9481610e58565b9050919050565b6000819050919050565b610eb6610eb182610ce7565b610e9b565b82525050565b60008160601b9050919050565b6000610ed482610ebc565b9050919050565b6000610ee682610ec9565b9050919050565b610efe610ef982610acd565b610edb565b82525050565b6000610f108285610ea5565b601082019150610f208284610eed565b6014820191508190509392505050565b7f4e487b7100000000000000000000000000000000000000000000000000000000600052601160045260246000fd5b6000610f6a82610b09565b91507fffffffffffffffffffffffffffffffffffffffffffffffffffffffffffffffff8203610f9c57610f9b610f30565b5b60018201905091905056fea264697066735822122073969cb273367760f5e07a3334842d70e28751738c3f2c9d1ef4d5842e28d22464736f6c634300080d0033",
  "immutableReferences": {},
  "source": "// SPDX-License-Identifier: MIT\npragma solidity >=0.4.22 <0.9.0;\n\ncontract CourseMarketplace {\n\n    enum State {\n        Purchased,\n        Activated,\n        Deactivated\n    }\n\n    struct Course {\n        uint id; // 32\n        uint price; // 32\n        bytes32 proof; // 32\n        address owner; // 20\n        State state; // 1\n    }\n\n    // mapping of courseHash to Course data\n    mapping(bytes32 => Course) private ownedCourses;\n\n    // mapping of courseID to courseHash\n    mapping(uint => bytes32) private ownedCourseHash;\n\n    // number of all courses + id of the course\n    uint private totalOwnedCourses;\n\n    address payable private owner;\n\n    constructor() {\n        setContractOwner(msg.sender);\n    }\n\n    /// Course has invalid state!\n    error InvalidState();\n\n    /// Course is not created!\n    error CourseIsNotCreated();\n\n    /// Course has already a Owner!\n    error CourseHasOwner();\n\n    /// Only owner has an access!\n    error OnlyOwner();\n\n    modifier onlyOwner() {\n        if (msg.sender != getContractOwner()) {\n            revert OnlyOwner();\n        }\n        _;\n    }\n\n    function purchaseCourse(\n        bytes16 courseId, // 0x00000000000000000000000000003130\n        bytes32 proof // 0x0000000000000000000000000000313000000000000000000000000000003130\n    )\n    external\n    payable\n    {\n        bytes32 courseHash = keccak256(abi.encodePacked(courseId, msg.sender));\n\n        if (hasCourseOwnership(courseHash)) {\n            revert CourseHasOwner();\n        }\n\n        uint id = totalOwnedCourses++;\n\n        ownedCourseHash[id] = courseHash;\n        ownedCourses[courseHash] = Course({\n        id : id,\n        price : msg.value,\n        proof : proof,\n        owner : msg.sender,\n        state : State.Purchased\n        });\n    }\n\n    function activateCourse(bytes32 courseHash)\n    external\n    onlyOwner\n    {\n        if (!isCourseCreated(courseHash)) {\n            revert CourseIsNotCreated();\n        }\n\n        Course storage course = ownedCourses[courseHash];\n\n        if (course.state != State.Purchased) {\n            revert InvalidState();\n        }\n\n        course.state = State.Activated;\n    }\n\n    function deactivateCourse(bytes32 courseHash)\n    external\n    onlyOwner\n    {\n        if (!isCourseCreated(courseHash)) {\n            revert CourseIsNotCreated();\n        }\n\n        Course storage course = ownedCourses[courseHash];\n\n        if (course.state != State.Purchased) {\n            revert InvalidState();\n        }\n\n        (bool success,) = course.owner.call{value : course.price}(\"\");\n        require(success, \"Transfer failed!\");\n\n        course.state = State.Deactivated;\n        course.price = 0;\n    }\n\n    function transferOwnership(address newOwner)\n    external\n    onlyOwner\n    {\n        setContractOwner(newOwner);\n    }\n\n    function getCourseCount()\n    external\n    view\n    returns (uint)\n    {\n        return totalOwnedCourses;\n    }\n\n    function getCourseHashAtIndex(uint index)\n    external\n    view\n    returns (bytes32)\n    {\n        return ownedCourseHash[index];\n    }\n\n    function getCourseByHash(bytes32 courseHash)\n    external\n    view\n    returns (Course memory)\n    {\n        return ownedCourses[courseHash];\n    }\n\n    function getContractOwner()\n    public\n    view\n    returns (address)\n    {\n        return owner;\n    }\n\n    function setContractOwner(address newOwner) private {\n        owner = payable(newOwner);\n    }\n\n    function isCourseCreated(bytes32 courseHash)\n    private\n    view\n    returns (bool)\n    {\n        return ownedCourses[courseHash].owner != 0x0000000000000000000000000000000000000000;\n    }\n\n    function hasCourseOwnership(bytes32 courseHash)\n    private\n    view\n    returns (bool)\n    {\n        return ownedCourses[courseHash].owner == msg.sender;\n    }\n}\n",
  "sourcePath": "/Users/melihcelik/Desktop/bitirme-proje/contracts/CourseMarketplace.sol",
  "compiler": {
    "name": "solc",
    "version": "0.8.13+commit.abaa5c0e.Emscripten.clang"
  },
  "schemaVersion": "3.4.7",
  "updatedAt": "2022-05-17T18:00:30.936Z",
  "networkType": "ethereum",
  "devdoc": {
    "kind": "dev",
    "methods": {},
    "version": 1
  },
  "userdoc": {
    "errors": {
      "CourseHasOwner()": [
        {
          "notice": "Course has already a Owner!"
        }
      ],
      "CourseIsNotCreated()": [
        {
          "notice": "Course is not created!"
        }
      ],
      "InvalidState()": [
        {
          "notice": "Course has invalid state!"
        }
      ],
      "OnlyOwner()": [
        {
          "notice": "Only owner has an access!"
        }
      ]
    },
    "kind": "user",
    "methods": {},
    "version": 1
  }
}